:1000000000180020C1000000C51500009115000077
:100010009115000091150000911500009115000048
:10002000911500009115000091150000C515000004
:10003000C515000091150000C515000081150000D0
:10004000C5150000C5150000C5150000C515000048
:10005000C5150000C5150000C5150000C515000038
:10006000C5150000C5150000C5150000C515000028
:1000700051190000311D000011210000C5150000BC
:10008000C5150000C5150000C5150000C515000008
:10009000C5150000C5150000C5150000C5150000F8
:1000A000550D0000C5150000C5150000C515000060
:1000B000C5150000C5150000C5150000C5150000D8
:1000C00038B501F083FA464A464B1A60464A474B18
:1000D0001A60474A474B1A60474B08221978114269
:1000E00002D019780A431A70444B2A221A7000234E
:1000F000434A44499A188A4204D24349C9580433AE
:100100001160F5E7414B42491A1F181D00238A422E
:1001100002D21360031CF6E73E493F4A5958101CAF
:1001200099500433C02BF7D100239A083B49920021
:10013000521803211940C9001568FF248C40A543BB
:100140002C1C80258D40291C214301331160202B5C
:10015000EBD1334B8A221860324B1A70324B242277
:100160001A70324BA0221A701A1C314B197888076A
:10017000FBD51978CD06FCD418780C21014008294C
:10018000FAD12C49032008702B49402008701978B7
:100190008806FCD519784D06FCD528492848086002
:1001A0002021117019780C220A400C2AFAD1254A14
:1001B000254B1A60254A264B1A60264B00221A60EE
:1001C000254B07221A60254A254B1A6062B600F0BB
:1001D00099FC02F06DFA01F0FFF901F063F9FEE716
:1001E000300004F034800440823F00003880044036
:1001F0000100000F3C80044002D0074000E00740AF
:10020000C000002000020020D029000004020020CD
:100210007C0500200000000000F9FF1F00E400E062
:1002200008ED00E000500640014006400040064056
:100230000640064004400640054006404480044015
:1002400000000110C0000505048004407FBB0000D1
:1002500014E000E018E000E010E000E000002020E2
:1002600020ED00E0FFFFFFFFFFFFFFFFFFFFFFFFAD
:10027000FFFFFFFFFFFFFFFFFFFFFFFFFFFFFFFF8E
:10028000FFFFFFFFFFFFFFFFFFFFFFFFFFFFFFFF7E
:10029000FFFFFFFFFFFFFFFFFFFFFFFFFFFFFFFF6E
:1002A000FFFFFFFFFFFFFFFFFFFFFFFFFFFFFFFF5E
:1002B000FFFFFFFFFFFFFFFFFFFFFFFFFFFFFFFF4E
:1002C000FFFFFFFFFFFFFFFFFFFFFFFFFFFFFFFF3E
:1002D000FFFFFFFFFFFFFFFFFFFFFFFFFFFFFFFF2E
:1002E000FFFFFFFFFFFFFFFFFFFFFFFFFFFFFFFF1E
:1002F000FFFFFFFFFFFFFFFFFFFFFFFFFFFFFFFF0E
:10030000FFFFFFFFFFFFFFFFFFFFFFFFFFFFFFFFFD
:10031000FFFFFFFFFFFFFFFFFFFFFFFFFFFFFFFFED
:10032000FFFFFFFFFFFFFFFFFFFFFFFFFFFFFFFFDD
:10033000FFFFFFFFFFFFFFFFFFFFFFFFFFFFFFFFCD
:10034000FFFFFFFFFFFFFFFFFFFFFFFFFFFFFFFFBD
:10035000FFFFFFFFFFFFFFFFFFFFFFFFFFFFFFFFAD
:10036000FFFFFFFFFFFFFFFFFFFFFFFFFFFFFFFF9D
:10037000FFFFFFFFFFFFFFFFFFFFFFFFFFFFFFFF8D
:10038000FFFFFFFFFFFFFFFFFFFFFFFFFFFFFFFF7D
:10039000FFFFFFFFFFFFFFFFFFFFFFFFFFFFFFFF6D
:1003A000FFFFFFFFFFFFFFFFFFFFFFFFFFFFFFFF5D
:1003B000FFFFFFFFFFFFFFFFFFFFFFFFFFFFFFFF4D
:1003C000FFFFFFFFFFFFFFFFFFFFFFFFFFFFFFFF3D
:1003D000FFFFFFFFFFFFFFFFFFFFFFFFFFFFFFFF2D
:1003E000FFFFFFFFFFFFFFFFFFFFFFFFFFFFFFFF1D
:1003F000FFFFFFFFFFFFFFFFFFFFFFFFFFFFFFFF0D
:10040000FFFFFFFFFFFFFFFFFFFFFFFFFEFFFFFFFD
:1004100010B5064C2378002B07D1054B002B02D0DA
:10042000044800E000BF0123237010BD000200203B
:1004300000000000D029000008B5084B002B03D0B5
:100440000748084900E000BF07480368002B03D0B5
:10045000064B002B00D0984708BDC04600000000A6
:10046000D02900000402002000020020000000004B
:1004700008B50520022100F0E9FA0620022100F06B
:10048000E5FA0720022100F0E1FA0820022100F03D
:10049000DDFA0920022100F0D9FA0A20022100F039
:1004A000D5FA0B20022100F0D1FA0C20022100F035
:1004B000CDFA0E20022100F0C9FA0F20022100F02F
:1004C000C5FA1020022100F0C1FA1120022100F02B
:1004D000BDFA1220022100F0B9FA1320022100F027
:1004E000B5FA0D20012100F0B1FA0D20002100F035
:1004F0007BFA08BD10B54D4C201C00F04DFA0028C9
:1005000004D0201C00F066FA494B1870494C201C9E
:1005100000F042FA002804D0201C00F05BFA444BA3
:100520005870454C201C00F037FA002804D0201CDD
:1005300000F050FA3E4B9870404C201C00F02CFA12
:10054000002804D0201C00F045FA394BD8703C4CF0
:10055000201C00F021FA002804D0201C00F03AFAF8
:10056000334B1871374C201C00F016FA002804D0C9
:10057000201C00F02FFA2E4B5871334C201C00F039
:100580000BFA002804D0201C00F024FA284B9871A4
:100590002E4C201C00F000FA002804D0201C00F093
:1005A00019FA234BD8712A4C201C00F0F5F90028C9
:1005B00004D0201C00F00EFA1D4B1872254C201C94
:1005C00000F0EAF9002804D0201C00F003FA184BD0
:1005D0005872214C201C00F0DFF9002804D0201CA8
:1005E00000F0F8F9124B98721C4C201C00F0D4F962
:1005F000002804D0201C00F0EDF90D4BD872184CE7
:10060000201C00F0C9F9002804D0201C00F0E2F9F9
:10061000074B1873134C201C00F0BEF9002804D0BF
:10062000201C00F0D7F9024B587310BD480200207F
:10063000FC020020680200201C020020380200207A
:10064000780200208802002098020020A8020020E2
:10065000B802002018030020CC020020DC02002099
:1006600058020020EC0200200222364B0021D15417
:1006700001320D2AF9D1344A1178002903D0997832
:100680000120014399705178002903D09978022004
:10069000014399709178002903D09978042001438F
:1006A0009970D178002903D0997808200143997076
:1006B000107B517B002809D0002904D0D978042070
:1006C0000143D97008E09978102003E0002903D095
:1006D00099782020014399701179002903D0D978A5
:1006E00040200143D9705179002904D0D878802165
:1006F00049420143D9709179002903D0D978022069
:100700000143D970D179002903D0D9780120014360
:10071000D970117A002903D0D97810200143D970FB
:10072000517A002903D0D97820200143D970917AD9
:10073000002901D0FF211971D27A002A01D0FF22AD
:100740005A717047D4000020FC02002008B5154BF8
:1007500015489B78012B01D00A2B01D1134915E0D4
:100760000422191C9143022901D111490EE00329E9
:1007700001D110490AE0042B01D0082B01D10E4908
:1007800004E0052B01D0092B07D10C490A2201F006
:10079000B5FF0B4B00221A7003E00A490A2201F050
:1007A000ADFF08BD280300200A030020CA00002076
:1007B000E8000020C0000020F2000020FC00002023
:1007C000C80200202C02002038B50C4A0C4B1168DE
:1007D00018680C4C431A962B0AD923780A490B4DFA
:1007E000C95C106001330D202970237000F0FCF803
:1007F00023780A2B01D10023237038BD1403002075
:100800002C030020C80200200A030020360200202A
:1008100008B5FFF72DFE08BD10B5FFF76BFEFFF71B
:1008200023FF114B19781A790A40197A0A40197B6B
:100830005B7B0A40134201D000F08AFA0B490C4856
:1008400000F000FE00F0F2FD002809DD094C074928
:10085000201C00F0BDFD2378012B01D1FFF776FFAE
:10086000FFF7B2FF10BDC046FC0200202832000096
:10087000D40000202803002008B5052114222248B6
:1008800000F05EF806211422204800F059F80721F4
:1008900014221F4800F054F8082114221D4800F0CB
:1008A0004FF8092114221C4800F04AF80A211422AA
:1008B0001A4800F045F80B211422194800F040F8BE
:1008C0000C211422174800F03BF80E211422164880
:1008D00000F036F80F211422144800F031F81021EE
:1008E0001422134800F02CF811211422114800F0B2
:1008F00027F812211422104800F022F80F48132183
:10090000142200F01DF808BD4802002068020020F3
:100910001C020020380200207802002088020020FB
:1009200098020020A8020020B8020020180300202E
:10093000CC020020DC02002058020020EC02002043
:1009400038B500238360064B041C1B6842600360BB
:10095000081C0D1C00F068F820736573201C38BD5E
:100960002C03002038B5041C407B00F05DF8237B8D
:1009700083420CD0074A236811686568C91A0023AE
:10098000A94205D3126820732260012300E00023EE
:10099000181C38BD2C03002038B5041CFFF7E2FFFB
:1009A000002802D00023A3600BE0A268002A0BD02D
:1009B000074B25681968491B914205D31B68A06045
:1009C00023600120A07301E00023A37338BDC0465B
:1009D0002C030020827B031C0020824203D0187B62
:1009E00043425841C0B2704710B51A2818D80C239A
:1009F00058430C4A835810181C7D027A224205D0B5
:100A0000002901D01A710BE01A7209E043681A68D4
:100A1000002902D003210A4301E002218A431A601F
:100A200010BDC0461C27000000231A280AD80C233A
:100A30005843054A81581018027A0B7C13405A1EFD
:100A40009341DBB2181C70471C27000010B51A2810
:100A500018D80C2358430C4A141863688258247A17
:100A6000012904D1117D0C431475A22205E0107DEB
:100A7000A0431075002902D18022520001E0042217
:100A8000FF321A6010BDC0461C27000010B572B6B8
:100A90000B4B0C491A680C4B1B68096862B648017D
:100AA00004D532219142894149425B180748FA2412
:100AB000801A3021A4005C4301F08CFD201810BD89
:100AC00018E000E004ED00E02C0300207FBB0000F4
:100AD00038B5041CFFF7DAFF051C002C0ED0FFF719
:100AE000D5FF074B401B984205D9013C002C05D08F
:100AF000FA239B00ED1800F0DDFCF0E738BDC0469E
:100B0000E70300001C4B8022D20510B51A6080223A
:100B100012061A60194B002018601949194B1A4A1D
:100B2000196028231360194A194C1360194A13607D
:100B3000194A1360194A1360194A13600922226086
:100B4000184C2060184C2160184C2360184C23600E
:100B5000184C2260184C20601848016018490B603E
:100B600018490B60184B1A6000F0C2FC0420FFF714
:100B7000AFFF00F091FB10BD00E100E004800340F6
:100B8000FFBF0000088003400C8003401480034036
:100B9000008003401C800340248003402C800340DD
:100BA0003480034004900340089003400C900340BD
:100BB000149003400090034004A0034008A00340A9
:100BC0000CA0034014A0034000A00340F0B50B4F5D
:100BD00002223B780A4E1A43D2000A4DB4186060D4
:100BE00028788824002800D0C82409040C43B45075
:100BF00001225040534028703B70F0BD7403002028
:100C000000F8FF1FC4030020431E10B5052B0FD8AA
:100C100072B6084A99008858002807D044685B00DB
:100C20008C50054A01889C5A611A995262B600E0BC
:100C3000002010BD5C03002070050020431E002032
:100C4000052B09D872B6054A9B009B58002B02D091
:100C500001305B68FAE762B67047C0468003002047
:100C600038B572B60123164A9A18013A127811075C
:100C70001CD5144A5C01A5589900002D05D1131903
:100C800008305860104BA3500AE001242143C900EA
:100C90008C58002C0AD15318083058600B4B8B50DD
:100CA0000B4B1A78013A1A7062B608E00133072B31
:100CB000D9D162B6064B00221A7000F061FB38BD34
:100CC0006028000000F8FF1F88004000C8004000B6
:100CD000BA030020421E10B5052A30D80223800036
:100CE0001843174BC0001B1872B6164CA05C0328A3
:100CF00009D801F05BFC140216050833022011E04C
:100D0000083304200EE01048920014580F4B002CBA
:100D100001D1115001E09858416099500EE0032034
:100D200000E00520A0540A1C08325A6088221807E7
:100D300000D5C822098809040A431A6062B610BDAA
:100D400000F8FF1F4C0300208003002098030020C0
:100D500000BE7047F7B5B9480378011CDBB25A07EB
:100D600011D5B74A1278002A0AD0B6480278D2B212
:100D7000002A05D0013AD2B20270002A00D100BE8A
:100D8000AE4D04222A7008251A1C2A4000D11EE20A
:100D9000AD4BAE4C1B78DBB29A081E09D200002E78
:100DA00000D0A7E1A21817685168B806000F0138F3
:100DB0000C2800D99BE101F003FC3D013D019A01A3
:100DC0009A019A019A019A019A0177019A019A016E
:100DD0009A010D000B689E4D49689E4869609E49C6
:100DE000002711609D4901222B600A709BB2A0214F
:100DF00007602761A761C9008B4200D1F2E015D8D6
:100E0000822B00D1AAE007D8802B00D0E6E0944CDA
:100E1000277067700227E6E081225200934200D1DA
:100E2000ABE0904A934200D1B6E0D7E088210901B7
:100E30008B4200D18CE008D88B495B18012B00D97C
:100E4000CCE06A88A988894BBAE0902212019342CB
:100E500000D0C3E0AA787A4B1A70E3191A6A120616
:100E600003D5586A083800F08BFA0837C02FF4D140
:100E70000026371C7E4BF058002805D041680191B0
:100E800000F07EFA0198F7E77A4B794AF0507A4BF6
:100E90009051F058002805D04168019100F070FA97
:100EA0000198F7E7744A754B9051754AF0507B00F2
:100EB000D052744BF85C0238032807D801F076FB57
:100EC00002040204002200E00122DA550137043650
:100ED000062FCFD16C4F00233B7001266B4BF218CD
:100EE0006B4B9200F318013B1B781370180720D549
:100EF00000F028FA7301002805D0E218083050608D
:100F0000644AE25003E0E0503B7801333B7000F06C
:100F100019FA0122B3001343DB00002805D0E218C0
:100F2000083050605C4AE25003E0E0503B78013307
:100F30003B70B20002211143C9000023635003211A
:100F40000A438A400136A350072EC7D11F1C49E02F
:100F50003B4B434C1B78171C237044E0AB88062B9B
:100F60003CD83F4C4D499B00277067705B181B783D
:100F700002273B4237D0227035E0AB887F221A40EF
:100F8000062A2BDC6F88002F28D1444A9B009B182F
:100F90001A7802218A430DE0AB887F221A40062A84
:100FA0001CDC6F88002F19D13C489B001B181A7855
:100FB00002210A431A7015E01888904204D00C33BD
:100FC0005C68002CF8D109E058888842F7D1120AF1
:100FD000032A01D1277806E01F8904E02F4B0F2256
:100FE0001A7024E03C1CEB889F4200D91F1C3E1E57
:100FF000082E00D90826201C311CFFF7E7FDA41994
:10100000BF1B03D13D1C082E04D010E00825BD42B3
:1010100000D93D1C201C291CFFF7D8FD64197F1B3B
:1010200001D1082D03D10B4D1D4B2C601F800122D7
:101030001C4B5BE0084B136059E0C0468020074022
:10104000C3030020750300209020074000F8FF1F15
:10105000B003002030030020C8000800C4030020B3
:10106000BB0300200203000080F9FFFF6828000096
:101070005C0300203403002080030020980300203C
:10108000700500204C030020BA03002030C8011076
:101090006028000088004000C8004000C0200740D1
:1010A000B803002094200740644E3768002F13D007
:1010B000634805882C1E082C00D90824211C381CE4
:1010C000FFF784FD2D1B5E49ADB20D80002D01D1CF
:1010D000082C00D13D1935605A4BA0221988D20046
:1010E000914204D100225A709A78574B1A7001220B
:1010F000564B60E0A4186068013E0838F6B22B40F9
:1011000036D000F03DF95249B0004258514B002A08
:101110001BD055684550111C985D0831616003284B
:101120000BD801F043FA02040608032104E002216F
:1011300002E0052100E0042199558823270700D506
:10114000C8231288120413433CE0985D032808D892
:1011500001F02CFA39390204002200E001229A55EC
:1011600031E02C40624262410324A41A9C552AE0DB
:1011700062880280002A20D0374D43804360B3004C
:101180005F593649002F01D1585101E0CD586860B0
:10119000C850334B7600F15A5218F25200F0D2F890
:1011A000002804D00830606020070AD507E02D4BE6
:1011B00020601A7801321A7005E02C4201D02A4BC7
:1011C00000E02A4B23602A4908230B70C3E5012461
:1011D00023421ED01D4802230370264B264D1A7051
:1011E000264B274E1D609D60264D1A61DD609A6179
:1011F0005E60254B0D251D70244DFF232B700B7059
:1012000011490A70224A1370224B9F221A700470EF
:1012100013E05AB2002A04DA1B4A0D201070802213
:101220000A700222134204D018480478E4B2047011
:101230000A701022134200D00A70F7BD300300205C
:10124000B8030020B00300209820074094200740F6
:10125000800300204C0300205C03002034030020A6
:1012600070050020BA030020C8004000880040003C
:1012700080200740740300208800080000F8FF1F4A
:101280005403002078030020C02007408820074036
:101290008C2007408420074010B500F099FF002201
:1012A0001A4B0021D150981808324160C82AF7D152
:1012B000174A80201468C00220431060180A154A9B
:1012C000C0B21070180C144AC0B21070134A1B0E32
:1012D0001370134AFF231370124A13481370134AF2
:1012E0001370012202701248017012490A70124AEA
:1012F000116899430B1C70210B4313600F4B802224
:1013000052041A600E4B10221A7010BD00F8FF1F15
:10131000348004409C200740B0200740B4200740A0
:101320008020074088200740942007401020074075
:10133000002107408420074018E400E000E100E0BD
:101340000821074038B572B60B4C2568281C01F0FF
:1013500091F9172802D962B600200CE080231B0601
:10136000C3409D43256062B648235843034B181879
:1013700000230360436038BD0801002000FAFF1F0E
:1013800010B5041C0E484821201A01F023F9172833
:1013900015D80C4B1B78002B07D00B4B1B78002B60
:1013A00003D0201CFFF75CFC09E072B68022074BDB
:1013B0001206C240101C1A681043186062B610BDB5
:1013C00000FAFF1FBA030020C30300200801002019
:1013D000F7B5144F061C3A680D1C0192124B1B788E
:1013E000002B19D00220FFF70FFC041E09D13B6827
:1013F000019A9B1AAB4212D8002D11D000F05AF876
:10140000ECE7011C08310322301C01F077F9201CA5
:10141000FFF7B6FF032004E00120404201E000E0B6
:10142000281CFEBD2C030020C3030020034B00201A
:101430001B78834201D0024B58887047C3030020B9
:1014400070050020F7B5154F051C3A680E1C019277
:10145000134B01201B78002B1CD0FFF7EFFB022859
:1014600007D93B68019A9B1AB34215D800F022F8BD
:10147000EEE7FFF767FF041EF3D01426291C321C89
:10148000083001F03BF901202680211CFFF722FCE7
:10149000301C02E0404200E00020FEBD2C03002092
:1014A000C303002008B5FFF7B3F9FFF7B5F900F063
:1014B00001F8FAE710B50D4C2378002B15D1012364
:1014C000237000F0F3F9002801D000F030FF00F0A5
:1014D000DDFB002801D000F0AEFF00F0C7FD0028C2
:1014E00001D001F02CF80023237010BDC5030020AB
:1014F0001B4B1C4A19781C4B082901D1002102E022
:101500000A2903D138211160132206E00C2901D1E8
:10151000342100E03C21116012221A60134B1A782A
:10152000134B002A01D0002200E001221A60114B67
:101530001A78114B012A01D880220CE0042A01D824
:10154000842208E0082A01D8852204E0102A01D864
:10155000862200E087221A60084B01221A70704729
:101560000C01002008B003400CB00340C70300206A
:1015700020B003400D01002024B00340C60300202A
:10158000024B1A6801321A607047C0462C030020D3
:1015900010B50B4C23685A0301D5FFF7DBFB23681A
:1015A0005A0501D500F0D4F923681A0501D500F0D9
:1015B000BFFB2368DA04ECD500F0AAFDE9E7C046DA
:1015C0003480044008B5FFF7E3FFFFFF014B002222
:1015D0001A607047008104407047FFFFEFF31380EB
:1015E000002821D1EFF31082002A1FD1EFF30583E9
:1015F000002B0FD0101C0F2B0ED91A1C103A92087A
:101600000B49032092000340521883401068D840D1
:10161000C0B201E080204000EFF31182002A05D023
:10162000824203D2101C01E0012040427047C046B4
:1016300000E400E0164B80221968D2000A431A60C9
:10164000144A00231370144A14491370144A137077
:10165000144A1370144A1370144A1160144AD121A9
:1016600089001160134AC104C90EC0B211705070D4
:1016700093702C23D370104BFF22196891430A1CDE
:1016800040210A431A600D4B802252011A607047B4
:10169000348004404B040020C903002013030000E1
:1016A000540400204C040020C803002040A0044043
:1016B00044A0044000A006400CE400E000E100E08B
:1016C00010B5124B132299789143032202400A432A
:1016D000410701D510210A439A700F220B4902409D
:1016E000042A03D18A79402422438A715A7910212D
:1016F0008A43084200D00A435A719A7910218A43DA
:10170000840600D50A439A7110BDC04600A0064069
:1017100008B50E4B1B685A0517D50D4B1B78DBB26D
:10172000002B02D0FFF7C6FEF7E70A4A80214901E5
:101730001160094A0949D3700422FF320A6008493E
:101740000A60084A1370084A137008BD34800440C8
:10175000C803002080E100E000A0064040A0044053
:1017600044A004404B040020C903002038B5041CE9
:101770000B4B1D78EDB2002DFAD1201C0121FFF793
:1017800065F9291C201CFFF72FF90C225443054B47
:10179000054AE1581C191160044B227A1A7038BDB1
:1017A000C80300201C270000500400204A04002029
:1017B000F8B5214B071C1B685A053BD51F4B1B680E
:1017C000002B02D01E4A12781A711E4E0023347864
:1017D0003F220134A2425B415B421C401A4D2B78F0
:1017E000A3421CD1FFF7FAFE402813DC174A1379F5
:1017F0005BB2002BF2DA2B78002101333F209842B4
:10180000494149420B401249C95CDBB2C9B2D171AE
:101810002B70E3E7FF28E1DDFFF74CFEDEE70C4B22
:10182000FFB21F550B4B01221A70084BE4B2AC22D9
:101830003470DA70F8BDC046348004405004002093
:101840004A040020540400204C04002000A006405C
:10185000CA030020C803002038B5041C4518AC4258
:1018600004D02078FFF7A4FF0134F8E738BDFFFF6C
:1018700008B5044B1B78002B02D0FFF71BFEF8E7DE
:1018800008BDC046C8030020064B074A1B781078E5
:10189000DBB2C0B2834201D33F3000E00138C01A4E
:1018A0007047C046540400204C040020054B1878B3
:1018B000054BC0B21B78DBB2984200D24030C01A50
:1018C0007047C0464B040020C90300200A4B0B4A56
:1018D00019781378DBB299420BD001333F200021F5
:1018E0009842494149420B400549C85CDBB213703C
:1018F00001E00120404270474B040020C903002052
:101900000A0400200A4B1A780A4B1B78DBB29A4271
:101910000AD0013300223F219942524152421340E2
:10192000054AD05CC0B201E0012040427047C04689
:101930004B040020C90300200A040020024B1A783F
:10194000024BD2B21A707047C90300204B0400202A
:1019500030B5254A1379990612D52449D4790B78E4
:10196000002001333F259D42404140420340204832
:10197000E4B20078834203D01E48C454DBB20B703B
:10198000D178194CC9B24BB2002B1ADA23795BB269
:10199000002B16DA184B19481D780378DBB29D42EC
:1019A00002D16C23E3700CE0013300243F259D42FB
:1019B000644164422340124CE45CDBB2E4B2D47173
:1019C0000370402319420ED0117919420BD00D4BF0
:1019D000002119700C4B1B688B4202D00B4909780F
:1019E00019722C23D37030BD00A006404B04002098
:1019F000C90300200A040020540400204C040020E5
:101A0000CA030020C8030020500400204A0400201C
:101A1000164B8022196812010A431A60144A0023E7
:101A20001370144A14491370144A1370144A137033
:101A3000144A1370144A1160144AD12189001160AC
:101A4000134AC104C90EC0B21170507093702C2398
:101A5000D370104B104A19680A408021C9010A430B
:101A60001A600E4B802292011A6070473480044045
:101A7000C00400205604002013030000C804002006
:101A8000C1040020550400200CB0044010B00440F4
:101A900000B006400CE400E0FF00FFFF00E100E0C2
:101AA00010B5124B132299789143032202400A4346
:101AB000410701D510210A439A700F220B490240B9
:101AC000042A03D18A79402422438A715A79102149
:101AD0008A43084200D00A435A719A7910218A43F6
:101AE000840600D50A439A7110BDC04600B0064076
:101AF00008B50E4B1B681A0517D50D4B1B78DBB2CA
:101B0000002B02D0FFF7D6FCF7E70A4A80218901B3
:101B10001160094A0949D3700422FF320A6008495A
:101B20000A60084A1370084A137008BD34800440E4
:101B30005504002080E100E000B006400CB00440F5
:101B400010B00440C00400205604002038B5041C26
:101B50000B4B1D78EDB2002DFAD1201C0121FEF7B0
:101B600075FF291C201CFEF73FFF0C225443054B38
:101B7000054AE1581C191160044B227A1A7038BDCD
:101B8000550400201C270000C4040020BF040020CE
:101B9000F8B5214B071C1B681A053BD51F4B1B686A
:101BA000002B02D01E4A12781A711E4E0023347880
:101BB00027220134A2425B415B421C401A4D2B7824
:101BC000A3421CD1FFF70AFD402813DC174A137902
:101BD0005BB2002BF2DA2B780021013327209842E8
:101BE000494149420B401249C95CDBB2C9B2D171CB
:101BF0002B70E3E7FF28E1DDFFF75CFCDEE70C4B31
:101C0000FFB21F550B4B01221A70084BE4B2AC22F5
:101C10003470DA70F8BDC04634800440C40400203B
:101C2000BF040020C8040020C104002000B006400A
:101C3000570400205504002038B5041C4518AC4258
:101C400004D02078FFF7A4FF0134F8E738BDFFFF88
:101C500008B5044B1B78002B02D0FFF72BFCF8E7EC
:101C600008BDC04655040020064B074A1B78107873
:101C7000DBB2C0B2834201D3273000E00138C01A82
:101C80007047C046C8040020C1040020054B1878E6
:101C9000054BC0B21B78DBB2984200D24030C01A6C
:101CA0007047C046C0040020560400200A4B0B4A6F
:101CB00019781378DBB299420BD001333F20002111
:101CC0009842494149420B400549C85CDBB2137058
:101CD00001E0012040427047C0040020560400206B
:101CE0007F0400200A4B1A780A4B1B78DBB29A4219
:101CF0000AD0013300223F219942524152421340FF
:101D0000054AD05CC0B201E0012040427047C046A5
:101D1000C0040020560400207F040020024B1A78E3
:101D2000024BD2B21A70704756040020C004002043
:101D300030B5254A1379990612D52449D4790B7800
:101D4000002001333F259D4240414042034020484E
:101D5000E4B20078834203D01E48C454DBB20B7057
:101D6000D178194CC9B24BB2002B1ADA23795BB285
:101D7000002B16DA184B19481D780378DBB29D4208
:101D800002D16C23E3700CE00133002427259D422F
:101D9000644164422340124CE45CDBB2E4B2D4718F
:101DA0000370402319420ED0117919420BD00D4B0C
:101DB000002119700C4B1B688B4202D00B4909782B
:101DC00019722C23D37030BD00B00640C00400202F
:101DD000560400207F040020C8040020C104002015
:101DE0005704002055040020C4040020BF04002034
:101DF000164B8022196852010A431A60144A0023C4
:101E00001370144A14491370144A1370144A13704F
:101E1000144A1370144A1160144AD12189001160C8
:101E2000134AC104C90EC0B21170507093702C23B4
:101E3000D370104B104A19680A408021C9030A4325
:101E40001A600E4B8022D2011A6070473480044021
:101E500034050020CA040020130300003C050020C4
:101E600035050020C904002008C004400CC004400F
:101E700000C006400CE400E0FFFF00FF00E100E0CE
:101E800010B5124B132299789143032202400A4362
:101E9000410701D510210A439A700F220B490240D5
:101EA000042A03D18A79402422438A715A79102165
:101EB0008A43084200D00A435A719A7910218A4312
:101EC000840600D50A439A7110BDC04600C0064082
:101ED00008B50E4B1B68DA0417D50D4B1B78DBB227
:101EE000002B02D0FFF7E6FAF7E70A4A8021C90182
:101EF0001160094A0949D3700422FF320A60084977
:101F00000A60084A1370084A137008BD3480044000
:101F1000C904002080E100E000C0064008C0044081
:101F20000CC0044034050020CA04002038B5041C4D
:101F30000B4B1D78EDB2002DFAD1201C0121FEF7CC
:101F400085FD291C201CFEF74FFD0C225443054B38
:101F5000054AE1581C191160044B227A1A7038BDE9
:101F6000C90400201C27000038050020330500208C
:101F7000F8B5214B071C1B68DA043BD51F4B1B68C7
:101F8000002B02D01E4A12781A711E4E002334789C
:101F900027220134A2425B415B421C401A4D2B7840
:101FA000A3421CD1FFF71AFB402813DC174A137910
:101FB0005BB2002BF2DA2B78002101332720984204
:101FC000494149420B401249C95CDBB2C9B2D171E7
:101FD0002B70E3E7FF28E1DDFFF76CFADEE70C4B3F
:101FE000FFB21F550B4B01221A70084BE4B2AC2212
:101FF0003470DA70F8BDC0463480044038050020E3
:10200000330500203C0500203505002000C00640B7
:10201000CB040020C904002038B5041C4518AC428C
:1020200004D02078FFF7A4FF0134F8E738BDFFFFA4
:1020300008B5044B1B78002B02D0FFF73BFAF8E7FA
:1020400008BDC046C9040020064B074A1B7810781B
:10205000DBB2C0B2834201D3273000E00138C01A9E
:102060007047C0463C05002035050020054B187818
:10207000054BC0B21B78DBB2984200D24030C01A88
:102080007047C04634050020CA0400200A4B0B4AA2
:1020900019781378DBB299420BD001333F2000212D
:1020A0009842494149420B400549C85CDBB2137074
:1020B00001E001204042704734050020CA0400209E
:1020C000F30400200A4B1A780A4B1B78DBB29A42C1
:1020D0000AD0013300223F2199425241524213401B
:1020E000054AD05CC0B201E0012040427047C046C2
:1020F00034050020CA040020F3040020024B1A78A3
:10210000024BD2B21A707047CA0400203405002076
:1021100030B5254A1379990612D52449D4790B781C
:10212000002001333F259D4240414042034020486A
:10213000E4B20078834203D01E48C454DBB20B7073
:10214000D178194CC9B24BB2002B1ADA23795BB2A1
:10215000002B16DA184B19481D780378DBB29D4224
:1021600002D16C23E3700CE00133002427259D424B
:10217000644164422340124CE45CDBB2E4B2D471AB
:102180000370402319420ED0117919420BD00D4B28
:10219000002119700C4B1B688B4202D00B49097847
:1021A00019722C23D37030BD00C0064034050020C6
:1021B000CA040020F30400203C050020350500205F
:1021C000CB040020C904002038050020330500207E
:1021D0001FB572B6154B70221A70154A4121117045
:1021E000144A0F21117080221A701A7852B2002AF4
:1021F000FBDA114B186862B6104B984201D80A23DB
:10220000584301AC211C0A2200F0A8F90023E15C2C
:102210000B4A002905D058001018013341800A2BC1
:10222000F5D101335B0013701FBDC04600000240B2
:102230000700024006000240080002407F96980016
:10224000EA01002008B50368C9B21B68984708BDB9
:1022500008B50368C9B21B68984708BD08B503688C
:10226000C9B21B68984708BD08B50368C9B21B68A6
:10227000984708BD08B5044B4808C01800F0AAF9F3
:10228000FFF7D8F908BDC046C0C62D0010B5064BF3
:102290004808C018141C00F09DF9FFF7CBF9201C6A
:1022A000FFF70EFA10BDC046C0C62D0008B5FFF7F7
:1022B0002FFA08BD08B5081CFFF758FA08BD08B585
:1022C000FFF7F4FA08BD08B5FFF71CFB08BD08B519
:1022D000FFF7FCFA08BD08B5FFF7CAFA08BD08B554
:1022E000FFF72CFB08BD08B5FFF7CEFA08BD08B50F
:1022F000081CFFF75DFA012008BD08B5081CFFF7B0
:1023000057FA012008BD10B5081C141C111CFFF75A
:10231000A3FA201C10BD38B5081C0D1C00F0F7F9FD
:10232000041C211C281CFFF797FA201C38BD70479D
:10233000044B00221A711A73FA21034A890099602A
:102340001A60704740050020C828000008B50368DF
:10235000C9B21B68984708BD08B50368C9B21B68B5
:10236000984708BD08B50368C9B21B68984708BDFF
:1023700008B50368C9B21B68984708BD08B5044B87
:102380004808C01800F026F9FFF742FB08BDC04618
:1023900060E3160010B5064B4808C018141C00F086
:1023A00019F9FFF735FB201CFFF77AFB10BDC0467B
:1023B000C0C62D0008B5FFF79BFB08BD08B5081C7B
:1023C000FFF7C4FB08BD08B5FFF760FC08BD08B502
:1023D000FFF788FC08BD08B5FFF768FC08BD08B525
:1023E000FFF736FC08BD08B5FFF798FC08BD08B537
:1023F000FFF73AFC08BD08B5081CFFF7C9FB012030
:1024000008BD08B5081CFFF7C3FB012008BD10B5C7
:10241000081C141C111CFFF70FFC201C10BD38B544
:10242000081C0D1C00F073F9041C211C281CFFF76C
:1024300003FC201C38BD7047044B00221A711A732C
:10244000FA21034A890099601A60704750050020FC
:102450001829000008B50368C9B21B68984708BD71
:1024600008B50368C9B21B68984708BD08B503687A
:10247000C9B21B68984708BD08B50368C9B21B6894
:10248000984708BD08B5044B4808C01800F0A2F8EA
:10249000FFF7AEFC08BDC04660E3160010B5064B62
:1024A0004808C018141C00F095F8FFF7A1FC201C88
:1024B000FFF7E6FC10BDC04660E3160008B5FFF765
:1024C00007FD08BD08B5081CFFF730FD08BD08B5BD
:1024D000FFF7CCFD08BD08B5FFF7F4FD08BD08B552
:1024E000FFF7D4FD08BD08B5FFF7A2FD08BD08B58C
:1024F000FFF704FE08BD08B5FFF7A6FD08BD08B547
:10250000081CFFF735FD012008BD08B5081CFFF7C2
:102510002FFD012008BD10B5081C141C111CFFF76D
:102520007BFD201C10BD38B5081C0D1C00F0EFF819
:10253000041C211C281CFFF76FFD201C38BD7047B0
:10254000044B00221A711A73FA21034A8900996018
:102550001A6070476005002068290000F8B5061C65
:102560000D1C171C0024301C391C00F077F80929B9
:1025700001D8303100E03731C9B22955301C391C3F
:1025800000F028F8061E01D00134ECE72B19587032
:102590002B1C5A1BA24206DA1A78295D19702A559B
:1025A0000133013CF5E7281CF8BDFFFF02B471467A
:1025B00049084900095C49008E4402BC7047C04686
:1025C00003B47146490840004900095A49008E4445
:1025D00003BC7047002934D00123002210B4884284
:1025E0002CD301242407A14204D2814202D2090142
:1025F0001B01F8E7E400A14204D2814202D2490063
:102600005B00F8E7884201D3401A1A434C08A04205
:1026100002D3001B5C0822438C08A04202D3001B9B
:102620009C082243CC08A04202D3001BDC082243B2
:10263000002803D01B0901D00909E3E7101C10BCD6
:102640007047002801D00020C04307B4024802A10F
:102650004018029003BDC046190000000029F0D0C8
:1026600003B5FFF7B9FF0EBC4243891A1847C046AD
:102670007047C0461C2101231B04984201D3000C63
:1026800010391B0A984201D3000A08391B099842E5
:1026900001D30009043902A2105C40187047C046FB
:1026A000040302020101010100000000000000001B
:1026B00070B50E4B0E4D0024ED1AAD101E1CAC4231
:1026C00004D0A300F35898470134F8E700F070F9FC
:1026D000084B094D0024ED1AAD101E1CAC4204D06D
:1026E000A300F35898470134F8E770BDBC290000F7
:1026F000BC290000BC290000D029000010B500232F
:10270000934203D0CC5CC4540133F9E710BD0023DD
:10271000C25C0133002AFBD1581E7047420000F80A
:1027200040A0044001000000420000F844A0044022
:1027300002000000C00000F800C0044001000000DA
:10274000000000F80490044002000000000000F8BF
:102750000890044004000000C00000F81CC00440C1
:1027600080000000C00000F810C00440100000000D
:10277000C00000F808C0044004000000C00000F8D9
:102780000CC0044008000000800000F80CB00440B9
:1027900008000000800000F810B0044010000000A5
:1027A000800000F818B0044040000000800000F8ED
:1027B0001CB0044080000000800000F814B0044009
:1027C00020000000C00000F804C004400200000027
:1027D000800000F800B0044001000000400000F854
:1027E00000A0044001000000400000F804A00440E4
:1027F00002000000400000F80CA0044008000000A7
:10280000400000F808A0044004000000C00000F8E8
:1028100014C0044020000000C00000F818C00440AC
:1028200040000000800000F804B0044002000000F6
:10283000800000F808B0044004000000020100F825
:1028400050D0044010000000020100F854D00440B1
:1028500020000000030100F878D004404000000090
:10286000151915191D15FFFF000100000E010020AC
:102870001200000000020000360100209900000054
:1028800000030000E601002000000000010309042D
:10289000200100200000000002030904D0010020F4
:1028A0000000000003030904EA010020000000000A
:1028B000000000000000000000000000FFFFFFFF1C
:1028C0000000000000000000EF22000007230000CD
:1028D000BF220000CF220000C7220000D722000044
:1028E000752200008D220000AD220000B5220000FC
:1028F000DF220000E72200004522000051220000F4
:102900005D2200006922000017230000FB22000066
:102910000000000000000000F72300000F2400006A
:10292000C7230000D7230000CF230000DF230000CF
:102930007D23000095230000B5230000BD23000087
:10294000E7230000EF2300004D230000592300007F
:1029500065230000712300001F24000003240000F1
:102960000000000000000000FF2400001725000008
:10297000CF240000DF240000D7240000E72400005B
:10298000852400009D240000BD240000C524000013
:10299000EF240000F724000055240000612400000B
:1029A0006D24000079240000272500000B2500007D
:1029B000F8B5C046F8BC08BC9E4670473904000014
:1029C000790800003123000039240000412500006F
:1029D00001000100000000000000010001000100F2
:1029E00001000100001401000000000000000000D0
:1029F00000000000000000000100000000000000D6
:102A000000000100010001000000000001000100C1
:102A10000100010000000000FFFFFFFF0A04120197
:102A20000002FFFFFF085E048E0214010102030191
:102A30001603A9C24D006900630072006F007300A5
:102A40006F006600740009029900040100A0FA09F1
:102A500004000002FF5D0100112100010125811425
:102A60000000000013020800000705810320000495
:102A7000070502032000080904010004FF5D0300AC
:102A80001B21000101018340010420168500000084
:102A90000000001605000000000000070583032069
:102AA00000020705040320000407058503200040F9
:102AB000070505032000100904020001FF5D020064
:102AC0000921000101228607000705860320001066
:102AD0000904030000FFFD13040641000101030087
:102AE000160343006F006E00740072006F006C00EC
:102AF0006C0065007200040309040C030000000070
:102B000000000000000000000000000000000000C5
:00000001FF
