:1000000000180020C10000003D1400000914000089
:10001000091400000914000009140000091400006C
:100020000914000009140000091400003D14000028
:100030003D140000091400003D140000F9130000F5
:100040003D1400003D1400003D1400003D1400006C
:100050003D1400003D1400003D1400003D1400005C
:100060003D1400003D1400003D1400003D1400004C
:10007000C9170000A91B0000891F00003D140000E3
:100080003D1400003D1400003D1400003D1400002C
:100090003D1400003D1400003D1400003D1400001C
:1000A000310C00003D1400003D1400003D14000020
:1000B0003D1400003D1400003D1400003D140000FC
:1000C00038B501F0BFF9434A434B1A60434A444BE9
:1000D0001A60444A444B1A60444B08221978114272
:1000E00002D019780A431A70414B2A221A70002351
:1000F000404A41499A188A4204D24049C9580433B7
:100100001160F5E73E4B3F491A1F181D00238A4234
:1001100002D21360031CF6E73B493C4A5958101CB5
:1001200099500433C02BF7D100239A083849920024
:10013000521803211940C9001568FF248C40A543BB
:100140002C1C80258D40291C214301331160202B5C
:10015000EBD1304B8A2218602F4B1A702F4B242280
:100160001A702F4BA0221A701A1C2E4B1978880770
:10017000FBD51978CD06FCD418780C21014008294C
:10018000FAD12949032008702849402008701978BD
:100190008806FCD519784D06FCD525492548086008
:1001A0002021117019780C220A400C2AFAD1224A17
:1001B000224B1A60224A234B1A60234B07221A60F3
:1001C00062B600F021FC02F0B7F901F041F901F04C
:1001D000A5F8FEE7300004F034800440823F0000C0
:1001E000388004400100000F3C80044002D00740EA
:1001F00000E00740A0FFFF1F9800002098280000A3
:100200009C000020200400200000000000F9FF1FD7
:1002100000E400E008ED00E0005006400140064028
:1002200000400640064006400440064005400640A7
:100230004480044000000110C00005050480044013
:100240007FBB000014E000E010E000E0FFFFFFFFD4
:10025000FFFFFFFFFFFFFFFFFFFFFFFFFFFFFFFFAE
:10026000FFFFFFFFFFFFFFFFFFFFFFFFFFFFFFFF9E
:10027000FFFFFFFFFFFFFFFFFFFFFFFFFFFFFFFF8E
:10028000FFFFFFFFFFFFFFFFFFFFFFFFFFFFFFFF7E
:10029000FFFFFFFFFFFFFFFFFFFFFFFFFFFFFFFF6E
:1002A000FFFFFFFFFFFFFFFFFFFFFFFFFFFFFFFF5E
:1002B000FFFFFFFFFFFFFFFFFFFFFFFFFFFFFFFF4E
:1002C000FFFFFFFFFFFFFFFFFFFFFFFFFFFFFFFF3E
:1002D000FFFFFFFFFFFFFFFFFFFFFFFFFFFFFFFF2E
:1002E000FFFFFFFFFFFFFFFFFFFFFFFFFFFFFFFF1E
:1002F000FFFFFFFFFFFFFFFFFFFFFFFFFFFFFFFF0E
:10030000FFFFFFFFFFFFFFFFFFFFFFFFFFFFFFFFFD
:10031000FFFFFFFFFFFFFFFFFFFFFFFFFFFFFFFFED
:10032000FFFFFFFFFFFFFFFFFFFFFFFFFFFFFFFFDD
:10033000FFFFFFFFFFFFFFFFFFFFFFFFFFFFFFFFCD
:10034000FFFFFFFFFFFFFFFFFFFFFFFFFFFFFFFFBD
:10035000FFFFFFFFFFFFFFFFFFFFFFFFFFFFFFFFAD
:10036000FFFFFFFFFFFFFFFFFFFFFFFFFFFFFFFF9D
:10037000FFFFFFFFFFFFFFFFFFFFFFFFFFFFFFFF8D
:10038000FFFFFFFFFFFFFFFFFFFFFFFFFFFFFFFF7D
:10039000FFFFFFFFFFFFFFFFFFFFFFFFFFFFFFFF6D
:1003A000FFFFFFFFFFFFFFFFFFFFFFFFFFFFFFFF5D
:1003B000FFFFFFFFFFFFFFFFFFFFFFFFFFFFFFFF4D
:1003C000FFFFFFFFFFFFFFFFFFFFFFFFFFFFFFFF3D
:1003D000FFFFFFFFFFFFFFFFFFFFFFFFFFFFFFFF2D
:1003E000FFFFFFFFFFFFFFFFFFFFFFFFFFFFFFFF1D
:1003F000FFFFFFFFFFFFFFFFFFFFFFFFFFFFFFFF0D
:10040000FFFFFFFFFFFFFFFFFFFFFFFFFEFFFFFFFD
:1004100010B5064C2378002B07D1054B002B02D0DA
:10042000044800E000BF0123237010BD98000020A5
:10043000000000009828000008B5084B002B03D0EE
:100440000748084900E000BF07480368002B03D0B5
:10045000064B002B00D0984708BDC04600000000A6
:10046000982800009C000020980000200000000058
:1004700008B50520022100F06BFA0620022100F0E9
:1004800067FA0720022100F063FA0820022100F039
:100490005FFA0920022100F05BFA0A20022100F035
:1004A00057FA0B20022100F053FA0C20022100F031
:1004B0004FFA0E20022100F04BFA0F20022100F02B
:1004C00047FA1020022100F043FA1120022100F027
:1004D0003FFA1220022100F03BFA1320022100F023
:1004E00037FA0D20012100F033FA0D20002100F031
:1004F000FDF908BD10B54D4C201C00F0CBF90028CB
:1005000004D0201C00F0E8F9494B1870494C201C1D
:1005100000F0C0F9002804D0201C00F0DDF9444BA5
:100520005870454C201C00F0B5F9002804D0201C60
:1005300000F0D2F93E4B9870404C201C00F0AAF914
:10054000002804D0201C00F0C7F9394BD8703C4C6F
:10055000201C00F09FF9002804D0201C00F0BCF9FA
:10056000334B1871374C201C00F094F9002804D04C
:10057000201C00F0B1F92E4B5871334C201C00F0B8
:1005800089F9002804D0201C00F0A6F9284B9871A6
:100590002E4C201C00F07EF9002804D0201C00F016
:1005A0009BF9234BD8712A4C201C00F073F90028CA
:1005B00004D0201C00F090F91D4B1872254C201C13
:1005C00000F068F9002804D0201C00F085F9184BD1
:1005D0005872214C201C00F05DF9002804D0201C2A
:1005E00000F07AF9124B98721C4C201C00F052F962
:1005F000002804D0201C00F06FF90D4BD872184C65
:10060000201C00F047F9002804D0201C00F064F9F9
:10061000074B1873134C201C00F03CF9002804D041
:10062000201C00F059F9024B587310BD74010020D2
:1006300044010020E4000020B40000203401002028
:100640000401002014010020240100208401002066
:10065000940100205401002064010020D4000020F7
:10066000C4000020F400002070B5304D002492B08A
:10067000402202A8211C2C706C70AC7001F08BFF22
:100680002A1C2B4BA100CB582A49013B08190079A1
:100690009B0002AD0134E8500A2CF2D110780023FF
:1006A0009D0002AE7659341C9C4002AE20430133BB
:1006B0007451C0B2082BF3D11070507800239D0004
:1006C00002AC65192C6A9C40204301332C62C0B2F5
:1006D000082BF4D150700D78C878174B054201D023
:1006E00001211DE08C782E1C264001D0072117E047
:1006F000002D01D01E6014E04978084201D003218A
:100700000EE00C4201D005210AE0002901D00421AD
:1007100006E00621002C03D10221002800D10F2180
:1007200019601B68937012B070BDC046A4FFFF1F14
:10073000A825000044010020A0FFFF1F08B5FFF717
:1007400097FE08BD08B5FFF7D5FEFFF78DFF002324
:10075000044A995C044AD1540133082BF8D100F0C3
:100760005FFD08BDA4FFFF1F1804002008B5052188
:100770001422224800F05EF806211422204800F0DE
:1007800059F8072114221F4800F054F808211422B8
:100790001D4800F04FF8092114221C4800F04AF8C7
:1007A0000A2114221A4800F045F80B211422194896
:1007B00000F040F80C211422174800F03BF80E21FD
:1007C0001422164800F036F80F211422144800F0C5
:1007D00031F810211422134800F02CF811211422B2
:1007E000114800F027F812211422104800F022F8D6
:1007F0000F481321142200F01DF808BD74010020D9
:10080000E4000020B4000020340100200401002096
:100810001401002024010020840100209401002004
:100820005401002064010020D4000020C4000020F6
:10083000F400002037B500238360074B041C1B68BD
:1008400042600193019B0D1C0360081C00F06EF8D0
:1008500020736573201C3EBDA401002013B5041C49
:10086000407B00F063F8237B834201D100200EE03F
:10087000074B21681A680092009A521A61688A42EE
:10088000F4D31B6820730193019B0120236016BDE4
:10089000A401002037B5041CFFF7E0FF002802D0B8
:1008A0000023A3600FE0A268002A0FD0094B25683F
:1008B000196800910099491B914207D31B68A060F9
:1008C0000193019B23600120A07301E00023A37327
:1008D0003EBDC046A4010020827B031C0020824252
:1008E00003D0187B43425841C0B2704710B51A2854
:1008F00018D80C2358430C4A835810181C7D027AD0
:10090000224205D0002901D01A710BE01A7209E0C9
:1009100043681A68002902D003210A4301E002213A
:100920008A431A6010BDC046D025000000231A2853
:100930000AD80C235843054A81581018027A0B7CB8
:1009400013405A1E9341DBB2181C7047D02500009B
:1009500010B51A2818D80C2358430C4A1418636889
:100960008258247A012904D1117D0C431475A222E6
:1009700005E0107DA0431075002902D180225200AD
:1009800001E00422FF321A6010BDC046D0250000ED
:1009900010B572B60B4B0C491A680C4B1B680968F2
:1009A00062B6480104D532219142894149425B181F
:1009B0000748FA24801A3021A4005C4301F04EFD60
:1009C000201810BD18E000E004ED00E0A4010020B4
:1009D0007FBB000038B5041CFFF7DAFF051C002CB4
:1009E0000ED0FFF7D5FF074B401B984205D9013CBD
:1009F000002C05D0FA239B00ED1800F097FCF0E7DF
:100A000038BDC046E70300001C4B8022D20510B55C
:100A10001A60802212061A60194B002018601949CA
:100A2000194B1A4A196028231360194A194C13608C
:100A3000194A1360194A1360194A1360194A13605E
:100A400009222260184C2060184C2160184C236049
:100A5000184C2360184C2260184C20601848016024
:100A600018490B6018490B60184B1A6000F07CFCA9
:100A70000420FFF7AFFF00F07DFB10BD00E100E0B8
:100A800004800340FFBF0000088003400C80034047
:100A900014800340008003401C80034024800340F6
:100AA0002C800340348003400490034008900340AE
:100AB0000C900340149003400090034004A00340B6
:100AC00008A003400CA0034014A0034000A0034072
:100AD000F0B50B4F02223B780A4E1A43D2000A4D62
:100AE000B418606028788824002800D0C82409043D
:100AF0000C43B45001225040534028703B70F0BD6D
:100B00000002002000F8FF1F68020020431E0020A2
:100B1000012B09D872B6054A9B009B58002B02D0C6
:100B200001305B68FAE762B67047C04644020020B5
:100B300010B572B61A4B1A78191C1A4B140706D541
:100B4000194A146A002C13D0926A002A18D04A78E5
:100B500008210A4206D0144A146C002C09D0926C69
:100B6000002A0FD062B600221A7000F0AFFB15E029
:100B700004210D4AC9000830541860600B4808E091
:100B8000052100E00921084AC900083054186060B6
:100B9000074888501A78013A1A7062B610BDC046EC
:100BA000142700005E02002000F8FF1F88004000AC
:100BB000C8004000421E10B5012A30D80223800030
:100BC0001843174BC0001B1872B6164CA05C0328C4
:100BD00009D801F02FFC140216050833022011E099
:100BE000083304200EE01048920014580F4B002CDC
:100BF00001D1115001E09858416099500EE0032056
:100C000000E00520A0540A1C08325A608822180708
:100C100000D5C822098809040A431A6062B610BDCB
:100C200000F8FF1FB4010020440200204C02002005
:100C3000F7B5B9480378011CDBB25A0711D5B74A9A
:100C40001278002A0AD0B6480278D2B2002A05D01B
:100C5000013AD2B20270002A00D100BEAE4D042289
:100C60002A7008251A1C2A4000D11FE2AD4BAE4C59
:100C70001B78DBB29A081E09D200002E00D0A8E132
:100C8000A21817685168B806000F01380C2800D95F
:100C90009CE101F0D9FB750175019B019B019B0152
:100CA0009B019B019B0178019B019B019B010D0016
:100CB0000B689E4D49689E4869609E499E4F116031
:100CC000012200262B6002709BB2A0203E602661AC
:100CD000A661C000834200D1F4E015D8822B00D178
:100CE000A9E007D8802B00D0E8E0944C267066700D
:100CF0000226E8E081225200934200D1ABE0904A04
:100D0000934200D1B7E0D9E0882109018B4200D19C
:100D10008BE009D88B481B18012B00D9CEE0834DFE
:100D2000894B6A88A988BBE090221201934200D0C7
:100D3000C4E07E4D794BAA781A70A3191F6A3F064A
:100D400003D5586A083800F0C1FA0836402EF4D1AD
:100D500000252E1C7D4FE859002805D041680191DF
:100D600000F0B4FA0198F7E77851794B794FE850E1
:100D7000E859002805D04268019200F0A7FA0198CE
:100D8000F7E7754B754AE8507300D052744B7851B1
:100D9000F05C0238032807D801F04CFB020402047F
:100DA000002200E001229A5501360435022ED1D1ED
:100DB0006C4F00233B7001256B4BEA186B4B920084
:100DC000EB18013B1B781370180720D500F060FA70
:100DD0006B01002805D0E21808305060644AE250E8
:100DE00003E0E0503B7801333B7000F051FA012200
:100DF000AB001343DB00002805D04E49E218083051
:100E00005060E15003E0E0503B7801333B70AB00B1
:100E100002221A43D2000026A65003221343934015
:100E20000135E6509542C7D14CE03C4B434C1B7812
:100E3000161C237047E03D4DAB88022B3ED83F4C3B
:100E40004C4F9B0026706670DB191B7802263342DC
:100E500039D0227037E0354D7F22AB881A40022A04
:100E60002CDC6E88002E29D1424F9B00DB191A78AA
:100E700002218A430EE02D4D7F22AB881A40022AC0
:100E80001CDC6E88002E19D13A4F9B00DB191A78B2
:100E900002210A431A7015E01888904204D00C33DE
:100EA0005C68002CF8D109E058888842F7D1120A12
:100EB000032A01D1267806E01E8904E02D4B0F227B
:100EC0001A7025E0341C194FFB889E4200D91E1C65
:100ED000371E402F00D94027201C391CFFF7F8FD92
:100EE000E419F61B03D1351C402F04D010E0402537
:100EF000B54200D9351C201C291CFFF7E9FD6419F7
:100F0000761B01D1402D03D10B4D1B4B2C601E8055
:100F100001221A4B59E0C04680200740670200209A
:100F2000010200209020074000F8FF1F540200201B
:100F300068020020C8004000A80100205F020020D5
:100F40000203000080F9FFFF18270000F8010020CD
:100F5000AC010020440200204C02002014040020B8
:100F6000B40100205E02002030C8011014270000E8
:100F700088004000C02007405C0200209420074009
:100F8000664B136022E0664F3D68002D13D0654824
:100F90000688341E402C00D94024211C281CFFF751
:100FA00097FD361B5F49B6B20E80002E01D1402C52
:100FB00000D12E193E605C4BA0221988D2009142CC
:100FC00004D100225A709A78584B1A700122584B5B
:100FD00060E0A4186068013E0838F6B22B4036D0B5
:100FE00000F074F95349B0004258534B002A1BD00B
:100FF00055684550111C985D0831616003280BD875
:1010000001F018FA02040608032104E0022102E0BC
:10101000052100E0042199558823270700D5C8231E
:101020001288120413433CE0985D032808D801F0AD
:1010300001FA39390204002200E001229A5531E018
:101040002C40624262410324A41A9C552AE0628823
:101050000280002A20D0394D43804360B3005F599D
:101060003749002F01D1585101E0CD586860C85070
:10107000344B7600F15A5218F25200F009F9002868
:1010800004D00830606020070AD507E02E4B2060AE
:101090001A7801321A7005E02C4201D01F4B00E093
:1010A0002A4B23602A4908230B70C2E501242342FE
:1010B0001ED01F4802230370264B244D1A70264B66
:1010C000264E1D609D60264D1A61DD609A615E604E
:1010D000244B0D251D70244DFF232B700B701349DD
:1010E0000A70224A1370224B9F221A70047013E078
:1010F0005AB2002A04DA1B4A0D20107080220A70AE
:101100000222134204D018480478E4B204700A7032
:101110001022134200D00A70F7BDC046C80040003C
:10112000A80100205C020020540200209820074003
:101130009420074044020020B4010020F801002060
:10114000AC010020140400205E0200208800400052
:10115000802007400002002000F8FF1FB801002097
:1011600004020020C0200740882007408C20074050
:101170008420074010B500F067FF00221A4B0021C1
:10118000D150981808324160482AF7D1174A802078
:101190001468C00220431060180A154AC0B21070CB
:1011A000180C144AC0B21070134A1B0E1370134A65
:1011B000FF231370124A13481370134A137001224D
:1011C00002701248017012490A70124A116899435C
:1011D0000B1C70210B4313600F4B802252041A60CA
:1011E0000E4B10221A7010BD00F8FF1F348004400F
:1011F0009C200740B0200740B420074080200740D3
:101200008820074094200740102007400021074015
:101210008420074018E400E000E100E008210740D6
:1012200070B5174E174B01201B78002B25D0FFF708
:101230006DFC154D022803D9013E002E13D115E097
:1012400000F026F8041EF7D000262E7008250F495E
:101250002A1C083001F096F901202580211CFFF797
:10126000A9FC301C0AE02B78002B03D001232B7043
:10127000181C02E000F05AF8D4E7404270BDC046A6
:1012800029320000670200206902002018040020B3
:1012900038B572B60B4C2568281C01F02FF91328BD
:1012A00002D962B600200CE080231B06C3409D4398
:1012B000256062B648235843034B18180023036087
:1012C000436038BDACFFFF1F00FAFF1F10B5041CC0
:1012D0000E484821201A01F0C1F8132815D80C4BEC
:1012E0001B78002B07D00B4B1B78002B03D0201C46
:1012F000FFF71EFC09E072B68022074B1206C240BF
:10130000101C1A681043186062B610BD00FAFF1F67
:101310005E02002067020020ACFFFF1F08B5FFF748
:101320000DFAFFF70FFA00F001F8FAE710B50D4CCF
:101330002378002B15D10123237000F0F3F9002846
:1013400001D000F030FF00F0DDFB002801D000F0FC
:10135000AEFF00F0C7FD002801D001F02CF80023FB
:10136000237010BD6A0200201B4B1C4A19781C4BCD
:10137000082901D1002102E00A2903D13821116096
:10138000132206E00C2901D1342100E03C21116038
:1013900012221A60134B1A78134B002A01D0002234
:1013A00000E001221A60114B1A78114B012A01D872
:1013B00080220CE0042A01D8842208E0082A01D8FF
:1013C000852204E0102A01D8862200E087221A60D4
:1013D000084B01221A707047B0FFFF1F08B003408E
:1013E0000CB003406C02002020B00340B1FFFF1F8F
:1013F00024B003406B020020024B1A6801321A60CD
:101400007047C046A401002010B50B4C23685A0356
:1014100001D5FFF70DFC23685A0501D500F0D4F97A
:1014200023681A0501D500F0BFFB2368DA04ECD568
:1014300000F0AAFDE9E7C0463480044008B5FFF794
:10144000E3FFFFFF014B00221A6070470081044058
:101450007047FFFFEFF31380002821D1EFF31082D4
:10146000002A1FD1EFF30583002B0FD0101C0F2B88
:101470000ED91A1C103A92080B490320920003401F
:10148000521883401068D840C0B201E0802040006C
:10149000EFF31182002A05D0824203D2101C01E032
:1014A000012040427047C04600E400E0164B802215
:1014B0001968D2000A431A60144A00231370144AB0
:1014C00014491370144A1370144A1370144A137099
:1014D000144A1160144AD12189001160134AC104D1
:1014E000C90EC0B21170507093702C23D370104B82
:1014F000FF22196891430A1C40210A431A600D4BD0
:10150000802252011A60704734800440F0020020AB
:101510006E02002013030000F8020020F1020020F8
:101520006D02002040A0044044A0044000A00640FA
:101530000CE400E000E100E010B5124B13229978B2
:101540009143032202400A43410701D510210A4377
:101550009A700F220B490240042A03D18A79402451
:1015600022438A715A7910218A43084200D00A43E3
:101570005A719A7910218A43840600D50A439A71D8
:1015800010BDC04600A0064008B50E4B1B685A05AA
:1015900017D50D4B1B78DBB2002B02D0FFF7C6FE30
:1015A000F7E70A4A802149011160094A0949D370C5
:1015B0000422FF320A6008490A60084A1370084A88
:1015C000137008BD348004406D02002080E100E00B
:1015D00000A0064040A0044044A00440F0020020C7
:1015E0006E02002038B5041C0B4B1D78EDB2002DA7
:1015F000FAD1201C0121FFF7ABF9291C201CFFF7B1
:1016000075F90C225443054B054AE1581C19116029
:10161000044B227A1A7038BD6D020020D0250000DC
:10162000F4020020EF020020F8B5214B071C1B68D4
:101630005A053BD51F4B1B68002B02D01E4A12785F
:101640001A711E4E002334783F220134A2425B41BE
:101650005B421C401A4D2B78A3421CD1FFF7FAFEC7
:10166000402813DC174A13795BB2002BF2DA2B788F
:10167000002101333F209842494149420B40124921
:10168000C95CDBB2C9B2D1712B70E3E7FF28E1DDA1
:10169000FFF74CFEDEE70C4BFFB21F550B4B012250
:1016A0001A70084BE4B2AC223470DA70F8BDC04650
:1016B00034800440F4020020EF020020F8020020F1
:1016C000F102002000A006406F0200206D02002001
:1016D00038B5041C4518AC4204D02078FFF7A4FFAD
:1016E0000134F8E738BDFFFF08B5044B1B78002B29
:1016F00002D0FFF71BFEF8E708BDC0466D020020D0
:10170000064B074A1B781078DBB2C0B2834201D384
:101710003F3000E00138C01A7047C046F802002090
:10172000F1020020054B1878054BC0B21B78DBB2E4
:10173000984200D24030C01A7047C046F0020020E4
:101740006E0200200A4B0B4A19781378DBB29942DB
:101750000BD001333F2000219842494149420B40C0
:101760000549C85CDBB2137001E0012040427047BC
:10177000F00200206E020020AF0200200A4B1A780F
:101780000A4B1B78DBB29A420AD0013300223F2178
:101790009942524152421340054AD05CC0B201E026
:1017A000012040427047C046F00200206E02002037
:1017B000AF020020024B1A78024BD2B21A70704767
:1017C0006E020020F002002030B5254A13799906F8
:1017D00012D52449D4790B78002001333F259D424E
:1017E0004041404203402048E4B20078834203D0A5
:1017F0001E48C454DBB20B70D178194CC9B24BB23D
:10180000002B1ADA23795BB2002B16DA184B194831
:101810001D780378DBB29D4202D16C23E3700CE0AB
:10182000013300243F259D42644164422340124C11
:10183000E45CDBB2E4B2D4710370402319420ED0F1
:10184000117919420BD00D4B002119700C4B1B68FC
:101850008B4202D00B49097819722C23D37030BD0A
:1018600000A00640F00200206E020020AF0200201F
:10187000F8020020F10200206F0200206D0200201B
:10188000F4020020EF020020164B8022196812019A
:101890000A431A60144A00231370144A144913703F
:1018A000144A1370144A1370144A1370144A1160C6
:1018B000144AD12189001160134AC104C90EC0B273
:1018C0001170507093702C23D370104B104A19680C
:1018D0000A408021C9010A431A600E4B80229201FE
:1018E0001A6070473480044064030020FA0200202C
:1018F000130300006C03002065030020F9020020A0
:101900000CB0044010B0044000B006400CE400E00D
:10191000FF00FFFF00E100E010B5124B13229978A1
:101920009143032202400A43410701D510210A4393
:101930009A700F220B490240042A03D18A7940246D
:1019400022438A715A7910218A43084200D00A43FF
:101950005A719A7910218A43840600D50A439A71F4
:1019600010BDC04600B0064008B50E4B1B681A05F6
:1019700017D50D4B1B78DBB2002B02D0FFF7D6FC3E
:10198000F7E70A4A802189011160094A0949D370A1
:101990000422FF320A6008490A60084A1370084AA4
:1019A000137008BD34800440F902002080E100E09B
:1019B00000B006400CB0044010B0044064030020A6
:1019C000FA02002038B5041C0B4B1D78EDB2002D37
:1019D000FAD1201C0121FEF7BBFF291C201CFEF7B9
:1019E00085FF0C225443054B054AE1581C19116030
:1019F000044B227A1A7038BDF9020020D02500006D
:101A00006803002063030020F8B5214B071C1B6806
:101A10001A053BD51F4B1B68002B02D01E4A1278BB
:101A20001A711E4E0023347827220134A2425B41F2
:101A30005B421C401A4D2B78A3421CD1FFF70AFDD4
:101A4000402813DC174A13795BB2002BF2DA2B78AB
:101A50000021013327209842494149420B40124955
:101A6000C95CDBB2C9B2D1712B70E3E7FF28E1DDBD
:101A7000FFF75CFCDEE70C4BFFB21F550B4B01225E
:101A80001A70084BE4B2AC223470DA70F8BDC0466C
:101A90003480044068030020630300206C030020AE
:101AA0006503002000B00640FB020020F902002080
:101AB00038B5041C4518AC4204D02078FFF7A4FFC9
:101AC0000134F8E738BDFFFF08B5044B1B78002B45
:101AD00002D0FFF72BFCF8E708BDC046F902002052
:101AE000064B074A1B781078DBB2C0B2834201D3A1
:101AF000273000E00138C01A7047C0466C03002050
:101B000065030020054B1878054BC0B21B78DBB28B
:101B1000984200D24030C01A7047C046640300208B
:101B2000FA0200200A4B0B4A19781378DBB299426B
:101B30000BD001333F2000219842494149420B40DC
:101B40000549C85CDBB2137001E0012040427047D8
:101B500064030020FA020020230300200A4B1A78B5
:101B60000A4B1B78DBB29A420AD0013300223F2194
:101B70009942524152421340054AD05CC0B201E042
:101B8000012040427047C04664030020FA02002052
:101B900023030020024B1A78024BD2B21A7070470E
:101BA000FA0200206403002030B5254A1379990613
:101BB00012D52449D4790B78002001333F259D426A
:101BC0004041404203402048E4B20078834203D0C1
:101BD0001E48C454DBB20B70D178194CC9B24BB259
:101BE000002B1ADA23795BB2002B16DA184B19484E
:101BF0001D780378DBB29D4202D16C23E3700CE0C8
:101C00000133002427259D42644164422340124C45
:101C1000E45CDBB2E4B2D4710370402319420ED00D
:101C2000117919420BD00D4B002119700C4B1B6818
:101C30008B4202D00B49097819722C23D37030BD26
:101C400000B0064064030020FA02002023030020B5
:101C50006C03002065030020FB020020F902002035
:101C60006803002063030020164B8022196852018C
:101C70000A431A60144A00231370144A144913705B
:101C8000144A1370144A1370144A1370144A1160E2
:101C9000144AD12189001160134AC104C90EC0B28F
:101CA0001170507093702C23D370104B104A196828
:101CB0000A408021C9030A431A600E4B8022D201D8
:101CC0001A60704734800440D80300206E0300205F
:101CD00013030000E0030020D90300206D0300205F
:101CE00008C004400CC0044000C006400CE400E002
:101CF000FFFF00FF00E100E010B5124B13229978BE
:101D00009143032202400A43410701D510210A43AF
:101D10009A700F220B490240042A03D18A79402489
:101D200022438A715A7910218A43084200D00A431B
:101D30005A719A7910218A43840600D50A439A7110
:101D400010BDC04600C0064008B50E4B1B68DA0443
:101D500017D50D4B1B78DBB2002B02D0FFF7E6FA4C
:101D6000F7E70A4A8021C9011160094A0949D3707D
:101D70000422FF320A6008490A60084A1370084AC0
:101D8000137008BD348004406D03002080E100E042
:101D900000C0064008C004400CC00440D803002026
:101DA0006E03002038B5041C0B4B1D78EDB2002DDE
:101DB000FAD1201C0121FEF7CBFD291C201CFEF7C7
:101DC00095FD0C225443054B054AE1581C1911603E
:101DD000044B227A1A7038BD6D030020D025000014
:101DE000DC030020D7030020F8B5214B071C1B683B
:101DF000DA043BD51F4B1B68002B02D01E4A127819
:101E00001A711E4E0023347827220134A2425B410E
:101E10005B421C401A4D2B78A3421CD1FFF71AFBE2
:101E2000402813DC174A13795BB2002BF2DA2B78C7
:101E30000021013327209842494149420B40124971
:101E4000C95CDBB2C9B2D1712B70E3E7FF28E1DDD9
:101E5000FFF76CFADEE70C4BFFB21F550B4B01226C
:101E60001A70084BE4B2AC223470DA70F8BDC04688
:101E700034800440DC030020D7030020E00300206E
:101E8000D903002000C006406F0300206D0300202E
:101E900038B5041C4518AC4204D02078FFF7A4FFE5
:101EA0000134F8E738BDFFFF08B5044B1B78002B61
:101EB00002D0FFF73BFAF8E708BDC0466D030020EB
:101EC000064B074A1B781078DBB2C0B2834201D3BD
:101ED000273000E00138C01A7047C046E0030020F8
:101EE000D9030020054B1878054BC0B21B78DBB234
:101EF000984200D24030C01A7047C046D803002034
:101F00006E0300200A4B0B4A19781378DBB2994212
:101F10000BD001333F2000219842494149420B40F8
:101F20000549C85CDBB2137001E0012040427047F4
:101F3000D80300206E030020970300200A4B1A7874
:101F40000A4B1B78DBB29A420AD0013300223F21B0
:101F50009942524152421340054AD05CC0B201E05E
:101F6000012040427047C046D80300206E03002085
:101F700097030020024B1A78024BD2B21A707047B6
:101F80006E030020D803002030B5254A1379990646
:101F900012D52449D4790B78002001333F259D4286
:101FA0004041404203402048E4B20078834203D0DD
:101FB0001E48C454DBB20B70D178194CC9B24BB275
:101FC000002B1ADA23795BB2002B16DA184B19486A
:101FD0001D780378DBB29D4202D16C23E3700CE0E4
:101FE0000133002427259D42644164422340124C62
:101FF000E45CDBB2E4B2D4710370402319420ED02A
:10200000117919420BD00D4B002119700C4B1B6834
:102010008B4202D00B49097819722C23D37030BD42
:1020200000C00640D80300206E0300209703002064
:10203000E0030020D90300206F0300206D0300207F
:10204000DC030020D70300201FB572B6154B7022A9
:102050001A70154A41211170144A0F211170802203
:102060001A701A7852B2002AFBDA114B186862B65D
:10207000104B984201D80A23584301AC211C0A2274
:1020800000F0B1F90023E15C0B4A002905D05800AB
:102090001018013341800A2BF5D101335B00137016
:1020A0001FBDC0460000024007000240060002407B
:1020B000080002407F9698008200002008B503685F
:1020C000C9B21B68984708BD08B50368C9B21B6848
:1020D000984708BD08B50368C9B21B68984708BD92
:1020E00008B50368C9B21B68984708BD08B5044B1A
:1020F0004808C01800F0B2F9FFF7D8F908BDC0468B
:10210000C0C62D0010B5064B4808C018141C00F0BE
:10211000A5F9FFF7CBF9201CFFF70EFA10BDC0465A
:10212000C0C62D0008B5FFF72FFA08BD08B5081C7A
:10213000FFF758FA08BD08B5FFF7F4FA08BD08B56F
:10214000FFF71CFB08BD08B5FFF7FCFA08BD08B592
:10215000FFF7CAFA08BD08B5FFF72CFB08BD08B5A4
:10216000FFF7CEFA08BD08B5081CFFF75DFA01209D
:1021700008BD08B5081CFFF757FA012008BD10B5C7
:10218000081C141C111CFFF7A3FA201C10BD38B545
:10219000081C0D1C00F01EF9041C211C281CFFF754
:1021A00097FA201C38BD7047044B00221A711A732D
:1021B000FA21034A890099601A607047E4030020FD
:1021C0009027000008B50368C9B21B68984708BD8E
:1021D00008B50368C9B21B68984708BD08B503680D
:1021E000C9B21B68984708BD08B50368C9B21B6827
:1021F000984708BD08B5044B4808C01800F02EF9F0
:10220000FFF742FB08BDC04660E3160010B5064B61
:102210004808C018141C00F021F9FFF735FB201CFA
:10222000FFF77AFB10BDC046C0C62D0008B5FFF70A
:102230009BFB08BD08B5081CFFF7C4FB08BD08B52B
:10224000FFF760FC08BD08B5FFF788FC08BD08B5BE
:10225000FFF768FC08BD08B5FFF736FC08BD08B5F8
:10226000FFF798FC08BD08B5FFF73AFC08BD08B5B4
:10227000081CFFF7C9FB012008BD08B5081CFFF7C3
:10228000C3FB012008BD10B5081C141C111CFFF76E
:102290000FFC201C10BD38B5081C0D1C00F09AF86E
:1022A000041C211C281CFFF703FC201C38BD7047B0
:1022B000044B00221A711A73FA21034A89009960AB
:1022C0001A607047F4030020E027000008B5036897
:1022D000C9B21B68984708BD08B50368C9B21B6836
:1022E000984708BD08B50368C9B21B68984708BD80
:1022F00008B50368C9B21B68984708BD08B5044B08
:102300004808C01800F0AAF8FFF7AEFC08BDC046A8
:1023100060E3160010B5064B4808C018141C00F006
:102320009DF8FFF7A1FC201CFFF7E6FC10BDC0469E
:1023300060E3160008B5FFF707FD08BD08B5081CE7
:10234000FFF730FD08BD08B5FFF7CCFD08BD08B5A7
:10235000FFF7F4FD08BD08B5FFF7D4FD08BD08B5CB
:10236000FFF7A2FD08BD08B5FFF704FE08BD08B5DC
:10237000FFF7A6FD08BD08B5081CFFF735FD0120D5
:1023800008BD08B5081CFFF72FFD012008BD10B5DA
:10239000081C141C111CFFF77BFD201C10BD38B558
:1023A000081C0D1C00F016F8041C211C281CFFF74B
:1023B0006FFD201C38BD7047044B00221A711A7340
:1023C000FA21034A890099601A60704704040020CA
:1023D00030280000021C031C981A0133591E09788A
:1023E0000029F9D17047F8B5061C0D1C171C0024F4
:1023F000301C391C00F076F8092901D8303100E092
:102400003731C9B22955301C391C00F027F8061E97
:1024100001D00134ECE72B1958702B1C5A1BA24237
:1024200006DA1A78295D19702A550133013CF5E75F
:10243000281CF8BD02B4714649084900095C4900EE
:102440008E4402BC7047C04603B471464908400040
:102450004900095A49008E4403BC7047002934D012
:102460000123002210B488422CD301242407A14266
:1024700004D2814202D209011B01F8E7E400A14223
:1024800004D2814202D249005B00F8E7884201D3BE
:10249000401A1A434C08A04202D3001B5C08224396
:1024A0008C08A04202D3001B9C082243CC08A04207
:1024B00002D3001BDC082243002803D01B0901D0F3
:1024C0000909E3E7101C10BC7047002801D0002068
:1024D000C04307B4024802A14018029003BDC046A1
:1024E000190000000029F0D003B5FFF7B9FF0EBCBA
:1024F0004243891A1847C0467047C0461C21012331
:102500001B04984201D3000C10391B0A984201D3D6
:10251000000A08391B09984201D30009043902A2B4
:10252000105C40187047C04604030202010101011B
:10253000000000000000000070B50E4B0E4D00249E
:10254000ED1AAD101E1CAC4204D0A300F3589847FE
:102550000134F8E700F090F9084B094D0024ED1A1A
:10256000AD101E1CAC4204D0A300F35898470134B0
:10257000F8E770BD8428000084280000842800004B
:102580009828000010B50023934203D0CC5CC454BB
:102590000133F9E710BD031C8218934202D0197071
:1025A0000133FAE77047FFFF01000000040000005C
:1025B000060000000500000002000000030000000B
:1025C00008000000070000000A00000009000000E9
:1025D000420000F840A0044001000000420000F862
:1025E00044A0044002000000C00000F800C0044005
:1025F00001000000000000F8049004400200000008
:10260000000000F80890044004000000C00000F83A
:102610001CC0044080000000C00000F810C004404E
:1026200010000000C00000F808C0044004000000D2
:10263000C00000F80CC0044008000000800000F852
:102640000CB0044008000000800000F810B0044006
:1026500010000000800000F818B0044040000000A6
:10266000800000F81CB0044080000000800000F8EA
:1026700014B0044020000000C00000F804C0044072
:1026800002000000800000F800B0044001000000DB
:10269000400000F800A0044001000000400000F8E5
:1026A00004A0044002000000400000F80CA0044018
:1026B00008000000400000F808A0044004000000EA
:1026C000C00000F814C0044020000000C00000F862
:1026D00018C0044040000000800000F804B004402E
:1026E00002000000800000F808B004400400000070
:1026F000020100F850D0044010000000020100F870
:1027000054D0044020000000030100F878D00440B9
:10271000400000001500FFFF000100000100002044
:10272000120000000002000046000020220000000D
:1027300000220000B2FFFF1F4F0000000021000038
:102740004F00002009000000000300007E00002070
:102750000000000001030904140000200000000034
:1027600002030904680000200000000003030904BC
:1027700082000020000000000000000000000000B7
:1027800000000000FFFFFFFF00000000000000004D
:10279000672100007F210000372100004721000051
:1027A0003F2100004F210000ED2000000521000026
:1027B000252100002D210000572100005F2100008D
:1027C000BD200000C9200000D5200000E12000004D
:1027D0008F210000732100000000000000000000B5
:1027E0006F220000872200003F2200004F220000DD
:1027F0004722000057220000F52100000D220000B2
:102800002D220000352200005F2200006722000018
:10281000C5210000D1210000DD210000E9210000D8
:10282000972200007B220000000000000000000052
:10283000772300008F230000472300005723000068
:102840004F2300005F230000FD220000152300003D
:10285000352300003D230000672300006F230000A4
:10286000CD220000D9220000E5220000F122000064
:102870009F23000083230000F8B5C046F8BC08BCC5
:102880009E467047390400006D070000A921000032
:08289000B1220000B923000091
:102898000F0000000000007F7F7F7F7FFFFFFFFFAA
:1028A8000A0405010904A101150025017501950D0A
:1028B80005091901290D8102750195038103150088
:1028C80025073500463B0175049501651405010986
:1028D800398142750195048103A100093009310944
:1028E800320933093475089505350045FF8102C062
:1028F800C01201000200000040C016660600010177
:102908000203010032034D006500630068006100A6
:102918006E006900630061006C00200053007100C4
:1029280075006900640020004600610063007400BF
:102938006F007200790009022200010100C032090B
:102948000400000103000000092111010001224FC9
:1029580000070581031000011603530068006F008B
:102968007200790075006B0065006E002100040399
:1029780009040C0300000000000000000000000033
:08298800000000000000000047
:00000001FF
